{
  "contractName": "PayMerkleExtended",
  "abi": [
    {
      "inputs": [
        {
          "internalType": "address payable",
          "name": "to",
          "type": "address"
        },
        {
          "internalType": "uint256",
          "name": "_timeout",
          "type": "uint256"
        },
        {
          "internalType": "bytes32",
          "name": "_root",
          "type": "bytes32"
        }
      ],
      "payable": true,
      "stateMutability": "payable",
      "type": "constructor"
    },
    {
      "constant": true,
      "inputs": [],
      "name": "channelRecipient",
      "outputs": [
        {
          "internalType": "address payable",
          "name": "",
          "type": "address"
        }
      ],
      "payable": false,
      "stateMutability": "view",
      "type": "function"
    },
    {
      "constant": true,
      "inputs": [],
      "name": "channelSender",
      "outputs": [
        {
          "internalType": "address payable",
          "name": "",
          "type": "address"
        }
      ],
      "payable": false,
      "stateMutability": "view",
      "type": "function"
    },
    {
      "constant": true,
      "inputs": [],
      "name": "channelTimeout",
      "outputs": [
        {
          "internalType": "uint256",
          "name": "",
          "type": "uint256"
        }
      ],
      "payable": false,
      "stateMutability": "view",
      "type": "function"
    },
    {
      "constant": true,
      "inputs": [],
      "name": "roots",
      "outputs": [
        {
          "internalType": "bytes32",
          "name": "",
          "type": "bytes32"
        }
      ],
      "payable": false,
      "stateMutability": "view",
      "type": "function"
    },
    {
      "constant": true,
      "inputs": [],
      "name": "startDate",
      "outputs": [
        {
          "internalType": "uint256",
          "name": "",
          "type": "uint256"
        }
      ],
      "payable": false,
      "stateMutability": "view",
      "type": "function"
    },
    {
      "constant": false,
      "inputs": [
        {
          "internalType": "bytes32",
          "name": "_newRoot",
          "type": "bytes32"
        }
      ],
      "name": "AddBalance",
      "outputs": [],
      "payable": true,
      "stateMutability": "payable",
      "type": "function"
    },
    {
      "constant": false,
      "inputs": [
        {
          "internalType": "uint256",
          "name": "_amount",
          "type": "uint256"
        },
        {
          "internalType": "bytes32[]",
          "name": "proof",
          "type": "bytes32[]"
        }
      ],
      "name": "CloseChannel",
      "outputs": [],
      "payable": false,
      "stateMutability": "nonpayable",
      "type": "function"
    },
    {
      "constant": true,
      "inputs": [
        {
          "internalType": "bytes32",
          "name": "root",
          "type": "bytes32"
        },
        {
          "internalType": "bytes32",
          "name": "leaf",
          "type": "bytes32"
        },
        {
          "internalType": "bytes32[]",
          "name": "proof",
          "type": "bytes32[]"
        }
      ],
      "name": "verifyMerkle",
      "outputs": [
        {
          "internalType": "bool",
          "name": "",
          "type": "bool"
        }
      ],
      "payable": false,
      "stateMutability": "pure",
      "type": "function"
    },
    {
      "constant": false,
      "inputs": [],
      "name": "ChannelTimeout",
      "outputs": [],
      "payable": false,
      "stateMutability": "nonpayable",
      "type": "function"
    }
  ],
  "bytecode": "0x60806040526040516105b93803806105b98339818101604052606081101561002657600080fd5b50805160208201516040909201519091903461004157600080fd5b600180546001600160a01b039094166001600160a01b031994851617905560008054909316331790925542600255600355600455610535806100846000396000f3fe6080604052600436106100865760003560e01c80632ef2d55e116100595780632ef2d55e146101b1578063393fe1cd146101c657806339658245146101db5780635b354c4a146101f0578063c4024d2b1461020d57610086565b806304758e791461008b578063075aa0c4146100bc5780630b97bc86146100d15780631596da74146100f8575b600080fd5b34801561009757600080fd5b506100a06102dd565b604080516001600160a01b039092168252519081900360200190f35b3480156100c857600080fd5b506100a06102ec565b3480156100dd57600080fd5b506100e66102fb565b60408051918252519081900360200190f35b34801561010457600080fd5b506101af6004803603604081101561011b57600080fd5b8135919081019060408101602082013564010000000081111561013d57600080fd5b82018360208201111561014f57600080fd5b8035906020019184602083028401116401000000008311171561017157600080fd5b919080806020026020016040519081016040528093929190818152602001838360200280828437600092019190915250929550610301945050505050565b005b3480156101bd57600080fd5b506100e6610398565b3480156101d257600080fd5b506100e661039e565b3480156101e757600080fd5b506101af6103a4565b6101af6004803603602081101561020657600080fd5b50356103c5565b34801561021957600080fd5b506102c96004803603606081101561023057600080fd5b81359160208101359181019060608101604082013564010000000081111561025757600080fd5b82018360208201111561026957600080fd5b8035906020019184602083028401116401000000008311171561028b57600080fd5b919080806020026020016040519081016040528093929190818152602001838360200280828437600092019190915250929550610436945050505050565b604080519115158252519081900360200190f35b6001546001600160a01b031681565b6000546001600160a01b031681565b60025481565b6001546001600160a01b0316331461031857600080fd5b6040805160208082018590528251808303820181529183019092528051910120600454610346908284610436565b61034f57600080fd5b6001546040516001600160a01b039091169084156108fc029085906000818181858888f19350505050158015610389573d6000803e3d6000fd5b506000546001600160a01b0316ff5b60035481565b60045481565b600354600254014210156103b757600080fd5b6000546001600160a01b0316ff5b806004541015610403576004805460408051602080820193909352808201859052815180820383018152606090910190915280519101209055610433565b60048054604080516020808201869052818301939093528151808203830181526060909101909152805191012090555b50565b600082815b83518110156104f55783818151811061045057fe5b60200260200101518210156104a8578184828151811061046c57fe5b602002602001015160405160200180838152602001828152602001925050506040516020818303038152906040528051906020012091506104ed565b8381815181106104b457fe5b60200260200101518260405160200180838152602001828152602001925050506040516020818303038152906040528051906020012091505b60010161043b565b50909314939250505056fea265627a7a7231582051b983f6f5107343991534edddcc6f89415259c7de367b0e632653c81da684b564736f6c63430005100032",
  "source": "pragma solidity >=0.4.22 <0.6.0;\r\n\r\ncontract PayMerkleExtended {\r\n    address payable public channelSender;\r\n    address payable public channelRecipient;\r\n    uint public startDate;\r\n    uint public channelTimeout;\r\n    bytes32 public roots;\r\n\r\n    constructor (address payable to, uint _timeout, bytes32 _root) public payable {\r\n        require(msg.value>0);\r\n        channelRecipient = to;\r\n        channelSender = msg.sender;\r\n        startDate = now;\r\n        channelTimeout = _timeout;\r\n        roots = _root;\r\n    }\r\n    function AddBalance(bytes32 _newRoot) public payable {\r\n        if (roots < _newRoot)\r\n            roots = keccak256(abi.encodePacked(roots, _newRoot));\r\n        else\r\n            roots = keccak256(abi.encodePacked(_newRoot, roots));\r\n    }\r\n    function CloseChannel(uint256 _amount, bytes32[] memory proof) public  {\r\n        require(msg.sender==channelRecipient);\r\n        bytes32 computedHash = keccak256(abi.encodePacked(_amount));\r\n        require(verifyMerkle(roots, computedHash, proof));\r\n        channelRecipient.transfer(_amount);\r\n        selfdestruct(channelSender);\r\n    }\r\n    function verifyMerkle (bytes32 root, bytes32 leaf, bytes32[] memory proof) public pure returns (bool) {\r\n        bytes32 computedHash = leaf;\r\n        for (uint256 i = 0; i < proof.length; i++) {\r\n            if (computedHash < proof[i])\r\n                computedHash = keccak256(abi.encodePacked(computedHash, proof[i]));\r\n            else\r\n                computedHash = keccak256(abi.encodePacked(proof[i], computedHash));\r\n        }\r\n        return computedHash==root;\r\n    }\r\n    function ChannelTimeout() public {\r\n        require(now >= startDate + channelTimeout);\r\n        selfdestruct(channelSender);\r\n    }\r\n}",
  "sourcePath": "D:/devapps/work/snoop-dev/blockchain/smart-contract/contracts/PayMerkleExtended.sol",
  "compiler": {
    "name": "solc",
    "version": "0.5.16+commit.9c3226ce.Emscripten.clang"
  },
  "schemaVersion": "3.2.5",
  "updatedAt": "2020-09-17T01:33:47.379Z",
  "devdoc": {
    "methods": {}
  },
  "userdoc": {
    "methods": {}
  }
}