{
  "contractName": "StoreTripleData",
  "abi": [
    {
      "constant": false,
      "inputs": [
        {
          "internalType": "bytes32",
          "name": "_triple",
          "type": "bytes32"
        },
        {
          "internalType": "string",
          "name": "_digest",
          "type": "string"
        }
      ],
      "name": "insertIPFS",
      "outputs": [],
      "payable": false,
      "stateMutability": "nonpayable",
      "type": "function"
    },
    {
      "constant": false,
      "inputs": [
        {
          "internalType": "bytes32",
          "name": "_triple",
          "type": "bytes32"
        },
        {
          "internalType": "address payable",
          "name": "receiver",
          "type": "address"
        }
      ],
      "name": "buyData",
      "outputs": [],
      "payable": true,
      "stateMutability": "payable",
      "type": "function"
    },
    {
      "constant": true,
      "inputs": [
        {
          "internalType": "bytes32",
          "name": "_triple",
          "type": "bytes32"
        }
      ],
      "name": "fetchIPFS",
      "outputs": [
        {
          "internalType": "string",
          "name": "ipfsHash",
          "type": "string"
        }
      ],
      "payable": false,
      "stateMutability": "view",
      "type": "function"
    }
  ],
  "bytecode": "0x608060405234801561001057600080fd5b506103e7806100206000396000f3fe6080604052600436106100345760003560e01c80636c0602de1461003957806394450d48146100d8578063eedbedc214610194575b600080fd5b34801561004557600080fd5b506100636004803603602081101561005c57600080fd5b50356101c0565b6040805160208082528351818301528351919283929083019185019080838360005b8381101561009d578181015183820152602001610085565b50505050905090810190601f1680156100ca5780820380516001836020036101000a031916815260200191505b509250505060405180910390f35b3480156100e457600080fd5b50610192600480360360408110156100fb57600080fd5b8135919081019060408101602082013564010000000081111561011d57600080fd5b82018360208201111561012f57600080fd5b8035906020019184600183028401116401000000008311171561015157600080fd5b91908080601f016020809104026020016040519081016040528093929190818152602001838380828437600092019190915250929550610268945050505050565b005b610192600480360360408110156101aa57600080fd5b50803590602001356001600160a01b03166102b8565b60008181526020818152604091829020600180820180548551600293821615610100026000190190911692909204601f810185900485028301850190955284825260609492939192909183018282801561025b5780601f106102305761010080835404028352916020019161025b565b820191906000526020600020905b81548152906001019060200180831161023e57829003601f168201915b5050505050915050919050565b6102706102ff565b50604080518082018252838152602080820184815260008681528083529390932082518155925180519293849390926102b0926001850192910190610317565b505050505050565b600034116102c557600080fd5b6040516001600160a01b038216903480156108fc02916000818181858888f193505050501580156102fa573d6000803e3d6000fd5b505050565b60408051808201909152600081526060602082015290565b828054600181600116156101000203166002900490600052602060002090601f016020900481019282601f1061035857805160ff1916838001178555610385565b82800160010185558215610385579182015b8281111561038557825182559160200191906001019061036a565b50610391929150610395565b5090565b6103af91905b80821115610391576000815560010161039b565b9056fea265627a7a723158203dac4ba8cb3ed214621077b4dfa5d5c6497f0df777130953847e87175b0b911d64736f6c63430005100032",
  "source": "pragma solidity >=0.4.22 <0.6.0;\r\n\r\ncontract StoreTripleData {\r\n\r\n    struct Triple {\r\n        bytes32 triple;\r\n        string ipfsHash;\r\n    }\r\n\r\n    mapping (bytes32 => Triple) private entries;\r\n\r\n\r\n\r\n  /**\r\n   * @dev associate a multihash entry with the sender address\r\n   * @param _digest hash digest produced by hashing content using hash function\r\n   */\r\n\r\n  function insertIPFS(bytes32 _triple, string memory _digest) public {\r\n\r\n    Triple memory data = Triple({\r\n        triple: _triple,\r\n        ipfsHash: _digest\r\n    });\r\n\r\n    entries[_triple] = data;\r\n  }\r\n\r\n  /**\r\n   * @dev retrieve multihash entry associated with an ipfs hash digest\r\n   * @param _triple address used as key\r\n   */\r\n\r\n    function buyData(bytes32 _triple, address payable receiver) payable public{\r\n        require(msg.value > 0);\r\n        receiver.transfer(msg.value);\r\n    }\r\n\r\n    function fetchIPFS(bytes32 _triple) external view returns (string memory ipfsHash) {\r\n        Triple storage ipfs = entries[_triple];\r\n        return ipfs.ipfsHash;\r\n    }\r\n\r\n\r\n}\r\n",
  "sourcePath": "D:/devapps/work/snoop-dev/blockchain/smart-contract/contracts/StoreTripleData.sol",
  "compiler": {
    "name": "solc",
    "version": "0.5.16+commit.9c3226ce.Emscripten.clang"
  },
  "schemaVersion": "3.2.5",
  "updatedAt": "2020-09-17T02:27:24.657Z",
  "networkType": "ethereum",
  "devdoc": {
    "methods": {
      "buyData(bytes32,address)": {
        "details": "retrieve multihash entry associated with an ipfs hash digest",
        "params": {
          "_triple": "address used as key"
        }
      },
      "insertIPFS(bytes32,string)": {
        "details": "associate a multihash entry with the sender address",
        "params": {
          "_digest": "hash digest produced by hashing content using hash function"
        }
      }
    }
  },
  "userdoc": {
    "methods": {}
  }
}