{
  "contractName": "User",
  "abi": [
    {
      "constant": false,
      "inputs": [
        {
          "internalType": "string",
          "name": "_digest",
          "type": "string"
        }
      ],
      "name": "setEntry",
      "outputs": [],
      "payable": false,
      "stateMutability": "nonpayable",
      "type": "function"
    }
  ],
  "bytecode": "0x608060405234801561001057600080fd5b5061024f806100206000396000f3fe608060405234801561001057600080fd5b506004361061002b5760003560e01c80634b36982014610030575b600080fd5b6100d66004803603602081101561004657600080fd5b81019060208101813564010000000081111561006157600080fd5b82018360208201111561007357600080fd5b8035906020019184600183028401116401000000008311171561009557600080fd5b91908080601f0160208091040260200160405190810160405280939291908181526020018383808284376000920191909152509295506100d8945050505050565b005b6100e061016c565b6040518060200160405280838152509050806000836040518082805190602001908083835b602083106101245780518252601f199092019160209182019101610105565b51815160209384036101000a60001901801990921691161790529201948552506040519384900381019093208451805191946101659450859350019061017f565b5050505050565b6040518060200160405280606081525090565b828054600181600116156101000203166002900490600052602060002090601f016020900481019282601f106101c057805160ff19168380011785556101ed565b828001600101855582156101ed579182015b828111156101ed5782518255916020019190600101906101d2565b506101f99291506101fd565b5090565b61021791905b808211156101f95760008155600101610203565b9056fea265627a7a72315820ede922a6e7454da6ef3edb681e46d83d9bd19f6bf3b7dc282bfc9388929e2adc64736f6c63430005100032",
  "source": "pragma solidity >=0.4.22 <0.6.0;\n\ncontract User {\n\n    struct Triple {\n        string ipfsHash;\n    }\n\n  mapping (string => Triple) private entries;\n\n  /**\n   * @dev associate a multihash entry with the sender address\n   * @param _digest hash digest produced by hashing content using hash function\n   */\n\n  function setEntry(string memory _digest) public {\n\n    Triple memory data = Triple({\n        ipfsHash: _digest\n    });\n\n    entries[_digest] = data;\n  }\n}\n",
  "sourcePath": "D:\\dev\\resTh\\Semantic2019-master\\blockchain\\Smart Contract\\contracts\\User.sol",
  "compiler": {
    "name": "solc",
    "version": "0.5.16+commit.9c3226ce.Emscripten.clang"
  },
  "schemaVersion": "3.0.23",
  "updatedAt": "2020-04-06T07:16:53.794Z",
  "devdoc": {
    "methods": {
      "setEntry(string)": {
        "details": "associate a multihash entry with the sender address",
        "params": {
          "_digest": "hash digest produced by hashing content using hash function"
        }
      }
    }
  },
  "userdoc": {
    "methods": {}
  }
}